{
  "contractName": "MyNFT",
  "abi": [
    {
      "inputs": [],
      "stateMutability": "nonpayable",
      "type": "constructor"
    },
    {
      "anonymous": false,
      "inputs": [
        {
          "indexed": true,
          "internalType": "address",
          "name": "owner",
          "type": "address"
        },
        {
          "indexed": true,
          "internalType": "address",
          "name": "approved",
          "type": "address"
        },
        {
          "indexed": true,
          "internalType": "uint256",
          "name": "tokenId",
          "type": "uint256"
        }
      ],
      "name": "Approval",
      "type": "event"
    },
    {
      "anonymous": false,
      "inputs": [
        {
          "indexed": true,
          "internalType": "address",
          "name": "owner",
          "type": "address"
        },
        {
          "indexed": true,
          "internalType": "address",
          "name": "operator",
          "type": "address"
        },
        {
          "indexed": false,
          "internalType": "bool",
          "name": "approved",
          "type": "bool"
        }
      ],
      "name": "ApprovalForAll",
      "type": "event"
    },
    {
      "anonymous": false,
      "inputs": [
        {
          "indexed": true,
          "internalType": "address",
          "name": "from",
          "type": "address"
        },
        {
          "indexed": true,
          "internalType": "address",
          "name": "to",
          "type": "address"
        },
        {
          "indexed": true,
          "internalType": "uint256",
          "name": "tokenId",
          "type": "uint256"
        }
      ],
      "name": "Transfer",
      "type": "event"
    },
    {
      "inputs": [
        {
          "internalType": "address",
          "name": "to",
          "type": "address"
        },
        {
          "internalType": "uint256",
          "name": "tokenId",
          "type": "uint256"
        }
      ],
      "name": "approve",
      "outputs": [],
      "stateMutability": "nonpayable",
      "type": "function"
    },
    {
      "inputs": [
        {
          "internalType": "address",
          "name": "owner",
          "type": "address"
        }
      ],
      "name": "balanceOf",
      "outputs": [
        {
          "internalType": "uint256",
          "name": "",
          "type": "uint256"
        }
      ],
      "stateMutability": "view",
      "type": "function",
      "constant": true
    },
    {
      "inputs": [
        {
          "internalType": "uint256",
          "name": "tokenId",
          "type": "uint256"
        }
      ],
      "name": "getApproved",
      "outputs": [
        {
          "internalType": "address",
          "name": "",
          "type": "address"
        }
      ],
      "stateMutability": "view",
      "type": "function",
      "constant": true
    },
    {
      "inputs": [
        {
          "internalType": "address",
          "name": "owner",
          "type": "address"
        },
        {
          "internalType": "address",
          "name": "operator",
          "type": "address"
        }
      ],
      "name": "isApprovedForAll",
      "outputs": [
        {
          "internalType": "bool",
          "name": "",
          "type": "bool"
        }
      ],
      "stateMutability": "view",
      "type": "function",
      "constant": true
    },
    {
      "inputs": [],
      "name": "name",
      "outputs": [
        {
          "internalType": "string",
          "name": "",
          "type": "string"
        }
      ],
      "stateMutability": "view",
      "type": "function",
      "constant": true
    },
    {
      "inputs": [
        {
          "internalType": "uint256",
          "name": "tokenId",
          "type": "uint256"
        }
      ],
      "name": "ownerOf",
      "outputs": [
        {
          "internalType": "address",
          "name": "",
          "type": "address"
        }
      ],
      "stateMutability": "view",
      "type": "function",
      "constant": true
    },
    {
      "inputs": [
        {
          "internalType": "uint256",
          "name": "",
          "type": "uint256"
        }
      ],
      "name": "petArray",
      "outputs": [
        {
          "internalType": "address payable",
          "name": "owner",
          "type": "address"
        },
        {
          "internalType": "uint256",
          "name": "id",
          "type": "uint256"
        },
        {
          "internalType": "string",
          "name": "petUri",
          "type": "string"
        },
        {
          "internalType": "string",
          "name": "name",
          "type": "string"
        },
        {
          "internalType": "uint256",
          "name": "price",
          "type": "uint256"
        },
        {
          "internalType": "string",
          "name": "imgHash",
          "type": "string"
        }
      ],
      "stateMutability": "view",
      "type": "function",
      "constant": true
    },
    {
      "inputs": [
        {
          "internalType": "uint256",
          "name": "",
          "type": "uint256"
        }
      ],
      "name": "price",
      "outputs": [
        {
          "internalType": "uint256",
          "name": "",
          "type": "uint256"
        }
      ],
      "stateMutability": "view",
      "type": "function",
      "constant": true
    },
    {
      "inputs": [
        {
          "internalType": "address",
          "name": "from",
          "type": "address"
        },
        {
          "internalType": "address",
          "name": "to",
          "type": "address"
        },
        {
          "internalType": "uint256",
          "name": "tokenId",
          "type": "uint256"
        }
      ],
      "name": "safeTransferFrom",
      "outputs": [],
      "stateMutability": "nonpayable",
      "type": "function"
    },
    {
      "inputs": [
        {
          "internalType": "address",
          "name": "from",
          "type": "address"
        },
        {
          "internalType": "address",
          "name": "to",
          "type": "address"
        },
        {
          "internalType": "uint256",
          "name": "tokenId",
          "type": "uint256"
        },
        {
          "internalType": "bytes",
          "name": "_data",
          "type": "bytes"
        }
      ],
      "name": "safeTransferFrom",
      "outputs": [],
      "stateMutability": "nonpayable",
      "type": "function"
    },
    {
      "inputs": [
        {
          "internalType": "address",
          "name": "operator",
          "type": "address"
        },
        {
          "internalType": "bool",
          "name": "approved",
          "type": "bool"
        }
      ],
      "name": "setApprovalForAll",
      "outputs": [],
      "stateMutability": "nonpayable",
      "type": "function"
    },
    {
      "inputs": [
        {
          "internalType": "bytes4",
          "name": "interfaceId",
          "type": "bytes4"
        }
      ],
      "name": "supportsInterface",
      "outputs": [
        {
          "internalType": "bool",
          "name": "",
          "type": "bool"
        }
      ],
      "stateMutability": "view",
      "type": "function",
      "constant": true
    },
    {
      "inputs": [],
      "name": "symbol",
      "outputs": [
        {
          "internalType": "string",
          "name": "",
          "type": "string"
        }
      ],
      "stateMutability": "view",
      "type": "function",
      "constant": true
    },
    {
      "inputs": [
        {
          "internalType": "uint256",
          "name": "tokenId",
          "type": "uint256"
        }
      ],
      "name": "tokenURI",
      "outputs": [
        {
          "internalType": "string",
          "name": "",
          "type": "string"
        }
      ],
      "stateMutability": "view",
      "type": "function",
      "constant": true
    },
    {
      "inputs": [
        {
          "internalType": "address",
          "name": "from",
          "type": "address"
        },
        {
          "internalType": "address",
          "name": "to",
          "type": "address"
        },
        {
          "internalType": "uint256",
          "name": "tokenId",
          "type": "uint256"
        }
      ],
      "name": "transferFrom",
      "outputs": [],
      "stateMutability": "nonpayable",
      "type": "function"
    },
    {
      "inputs": [
        {
          "internalType": "string",
          "name": "_petUri",
          "type": "string"
        },
        {
          "internalType": "string",
          "name": "_name",
          "type": "string"
        },
        {
          "internalType": "uint256",
          "name": "_price",
          "type": "uint256"
        },
        {
          "internalType": "string",
          "name": "_imgHash",
          "type": "string"
        }
      ],
      "name": "listPet",
      "outputs": [
        {
          "internalType": "uint256",
          "name": "",
          "type": "uint256"
        }
      ],
      "stateMutability": "nonpayable",
      "type": "function"
    },
    {
      "inputs": [
        {
          "internalType": "uint256",
          "name": "tokenId",
          "type": "uint256"
        }
      ],
      "name": "buyPet",
      "outputs": [
        {
          "internalType": "bool",
          "name": "",
          "type": "bool"
        }
      ],
      "stateMutability": "payable",
      "type": "function",
      "payable": true
    },
    {
      "inputs": [
        {
          "internalType": "uint256",
          "name": "tokenId",
          "type": "uint256"
        }
      ],
      "name": "burnNFT",
      "outputs": [
        {
          "internalType": "bool",
          "name": "",
          "type": "bool"
        }
      ],
      "stateMutability": "nonpayable",
      "type": "function"
    },
    {
      "inputs": [
        {
          "internalType": "uint256",
          "name": "tokenId",
          "type": "uint256"
        },
        {
          "internalType": "uint256",
          "name": "_newPrice",
          "type": "uint256"
        }
      ],
      "name": "changePrice",
      "outputs": [
        {
          "internalType": "bool",
          "name": "",
          "type": "bool"
        }
      ],
      "stateMutability": "nonpayable",
      "type": "function"
    },
    {
      "inputs": [],
      "name": "getData",
      "outputs": [
        {
          "components": [
            {
              "internalType": "address payable",
              "name": "owner",
              "type": "address"
            },
            {
              "internalType": "uint256",
              "name": "id",
              "type": "uint256"
            },
            {
              "internalType": "string",
              "name": "petUri",
              "type": "string"
            },
            {
              "internalType": "string",
              "name": "name",
              "type": "string"
            },
            {
              "internalType": "uint256",
              "name": "price",
              "type": "uint256"
            },
            {
              "internalType": "string",
              "name": "imgHash",
              "type": "string"
            }
          ],
          "internalType": "struct MyNFT.petObj[]",
          "name": "",
          "type": "tuple[]"
        }
      ],
      "stateMutability": "view",
      "type": "function",
      "constant": true
    }
  ],
  "bytecode": "0x608060405260006007553480156200001657600080fd5b506040518060400160405280600581526020017f4d794e46540000000000000000000000000000000000000000000000000000008152506040518060400160405280600481526020017f4d4e46540000000000000000000000000000000000000000000000000000000081525081600090805190602001906200009b929190620000fe565b508060019080519060200190620000b4929190620000fe565b50505033600960006101000a81548173ffffffffffffffffffffffffffffffffffffffff021916908373ffffffffffffffffffffffffffffffffffffffff16021790555062000213565b8280546200010c90620001ae565b90600052602060002090601f0160209004810192826200013057600085556200017c565b82601f106200014b57805160ff19168380011785556200017c565b828001600101855582156200017c579182015b828111156200017b5782518255916020019190600101906200015e565b5b5090506200018b91906200018f565b5090565b5b80821115620001aa57600081600090555060010162000190565b5090565b60006002820490506001821680620001c757607f821691505b60208210811415620001de57620001dd620001e4565b5b50919050565b7f4e487b7100000000000000000000000000000000000000000000000000000000600052602260045260246000fd5b613c0f80620002236000396000f3fe60806040526004361061011f5760003560e01c80636352211e116100a0578063b3de019c11610064578063b3de019c14610424578063b88d4fde14610461578063c87b56dd1461048a578063ccbe710d146104c7578063e985e9c5146105095761011f565b80636352211e1461032657806370a082311461036357806395d89b41146103a05780639edded11146103cb578063a22cb465146103fb5761011f565b806326a49e37116100e757806326a49e371461021b5780632890e0d7146102585780633bc5de301461029557806342842e0e146102c05780635f64df97146102e95761011f565b806301ffc9a71461012457806306fdde0314610161578063081812fc1461018c578063095ea7b3146101c957806323b872dd146101f2575b600080fd5b34801561013057600080fd5b5061014b60048036038101906101469190612922565b610546565b60405161015891906134ab565b60405180910390f35b34801561016d57600080fd5b50610176610628565b60405161018391906134c6565b60405180910390f35b34801561019857600080fd5b506101b360048036038101906101ae9190612a1f565b6106ba565b6040516101c091906133ac565b60405180910390f35b3480156101d557600080fd5b506101f060048036038101906101eb91906128e6565b61073f565b005b3480156101fe57600080fd5b50610219600480360381019061021491906127e0565b610857565b005b34801561022757600080fd5b50610242600480360381019061023d9190612a1f565b6108b7565b60405161024f9190613748565b60405180910390f35b34801561026457600080fd5b5061027f600480360381019061027a9190612a1f565b6108cf565b60405161028c91906134ab565b60405180910390f35b3480156102a157600080fd5b506102aa6109dd565b6040516102b79190613489565b60405180910390f35b3480156102cc57600080fd5b506102e760048036038101906102e291906127e0565b610c5c565b005b3480156102f557600080fd5b50610310600480360381019061030b9190612974565b610c7c565b60405161031d9190613748565b60405180910390f35b34801561033257600080fd5b5061034d60048036038101906103489190612a1f565b610e0a565b60405161035a91906133ac565b60405180910390f35b34801561036f57600080fd5b5061038a6004803603810190610385919061277b565b610ebc565b6040516103979190613748565b60405180910390f35b3480156103ac57600080fd5b506103b5610f74565b6040516103c291906134c6565b60405180910390f35b6103e560048036038101906103e09190612a1f565b611006565b6040516103f291906134ab565b60405180910390f35b34801561040757600080fd5b50610422600480360381019061041d91906128aa565b6111c6565b005b34801561043057600080fd5b5061044b60048036038101906104469190612a48565b611347565b60405161045891906134ab565b60405180910390f35b34801561046d57600080fd5b506104886004803603810190610483919061282f565b611426565b005b34801561049657600080fd5b506104b160048036038101906104ac9190612a1f565b611488565b6040516104be91906134c6565b60405180910390f35b3480156104d357600080fd5b506104ee60048036038101906104e99190612a1f565b6115da565b604051610500969594939291906133c7565b60405180910390f35b34801561051557600080fd5b50610530600480360381019061052b91906127a4565b6117de565b60405161053d91906134ab565b60405180910390f35b60007f80ac58cd000000000000000000000000000000000000000000000000000000007bffffffffffffffffffffffffffffffffffffffffffffffffffffffff1916827bffffffffffffffffffffffffffffffffffffffffffffffffffffffff1916148061061157507f5b5e139f000000000000000000000000000000000000000000000000000000007bffffffffffffffffffffffffffffffffffffffffffffffffffffffff1916827bffffffffffffffffffffffffffffffffffffffffffffffffffffffff1916145b80610621575061062082611872565b5b9050919050565b60606000805461063790613a04565b80601f016020809104026020016040519081016040528092919081815260200182805461066390613a04565b80156106b05780601f10610685576101008083540402835291602001916106b0565b820191906000526020600020905b81548152906001019060200180831161069357829003601f168201915b5050505050905090565b60006106c5826118dc565b610704576040517f08c379a00000000000000000000000000000000000000000000000000000000081526004016106fb90613688565b60405180910390fd5b6004600083815260200190815260200160002060009054906101000a900473ffffffffffffffffffffffffffffffffffffffff169050919050565b600061074a82610e0a565b90508073ffffffffffffffffffffffffffffffffffffffff168373ffffffffffffffffffffffffffffffffffffffff1614156107bb576040517f08c379a00000000000000000000000000000000000000000000000000000000081526004016107b2906136e8565b60405180910390fd5b8073ffffffffffffffffffffffffffffffffffffffff166107da611948565b73ffffffffffffffffffffffffffffffffffffffff161480610809575061080881610803611948565b6117de565b5b610848576040517f08c379a000000000000000000000000000000000000000000000000000000000815260040161083f906135c8565b60405180910390fd5b6108528383611950565b505050565b610868610862611948565b82611a09565b6108a7576040517f08c379a000000000000000000000000000000000000000000000000000000000815260040161089e90613728565b60405180910390fd5b6108b2838383611ae7565b505050565b600b6020528060005260406000206000915090505481565b60006108da82610e0a565b73ffffffffffffffffffffffffffffffffffffffff163373ffffffffffffffffffffffffffffffffffffffff161461091157600080fd5b61091a82611d43565b600a6001836109299190613908565b81548110610960577f4e487b7100000000000000000000000000000000000000000000000000000000600052603260045260246000fd5b9060005260206000209060060201600080820160006101000a81549073ffffffffffffffffffffffffffffffffffffffff021916905560018201600090556002820160006109ae919061255f565b6003820160006109be919061255f565b60048201600090556005820160006109d6919061255f565b5050919050565b6060600a805480602002602001604051908101604052809291908181526020016000905b82821015610c5357838290600052602060002090600602016040518060c00160405290816000820160009054906101000a900473ffffffffffffffffffffffffffffffffffffffff1673ffffffffffffffffffffffffffffffffffffffff1673ffffffffffffffffffffffffffffffffffffffff16815260200160018201548152602001600282018054610a9490613a04565b80601f0160208091040260200160405190810160405280929190818152602001828054610ac090613a04565b8015610b0d5780601f10610ae257610100808354040283529160200191610b0d565b820191906000526020600020905b815481529060010190602001808311610af057829003601f168201915b50505050508152602001600382018054610b2690613a04565b80601f0160208091040260200160405190810160405280929190818152602001828054610b5290613a04565b8015610b9f5780601f10610b7457610100808354040283529160200191610b9f565b820191906000526020600020905b815481529060010190602001808311610b8257829003601f168201915b5050505050815260200160048201548152602001600582018054610bc290613a04565b80601f0160208091040260200160405190810160405280929190818152602001828054610bee90613a04565b8015610c3b5780601f10610c1057610100808354040283529160200191610c3b565b820191906000526020600020905b815481529060010190602001808311610c1e57829003601f168201915b50505050508152505081526020019060010190610a01565b50505050905090565b610c7783838360405180602001604052806000815250611426565b505050565b6000600160076000828254610c919190613881565b92505081905550600754600881905550610cad33600854611d96565b610cb960085486611f64565b82600b600060085481526020019081526020016000208190555060006040518060c001604052803373ffffffffffffffffffffffffffffffffffffffff1681526020016008548152602001878152602001868152602001858152602001848152509050600a81908060018154018082558091505060019003906000526020600020906006020160009091909190915060008201518160000160006101000a81548173ffffffffffffffffffffffffffffffffffffffff021916908373ffffffffffffffffffffffffffffffffffffffff160217905550602082015181600101556040820151816002019080519060200190610db592919061259f565b506060820151816003019080519060200190610dd292919061259f565b506080820151816004015560a0820151816005019080519060200190610df992919061259f565b505050600854915050949350505050565b6000806002600084815260200190815260200160002060009054906101000a900473ffffffffffffffffffffffffffffffffffffffff169050600073ffffffffffffffffffffffffffffffffffffffff168173ffffffffffffffffffffffffffffffffffffffff161415610eb3576040517f08c379a0000000000000000000000000000000000000000000000000000000008152600401610eaa90613608565b60405180910390fd5b80915050919050565b60008073ffffffffffffffffffffffffffffffffffffffff168273ffffffffffffffffffffffffffffffffffffffff161415610f2d576040517f08c379a0000000000000000000000000000000000000000000000000000000008152600401610f24906135e8565b60405180910390fd5b600360008373ffffffffffffffffffffffffffffffffffffffff1673ffffffffffffffffffffffffffffffffffffffff168152602001908152602001600020549050919050565b606060018054610f8390613a04565b80601f0160208091040260200160405190810160405280929190818152602001828054610faf90613a04565b8015610ffc5780601f10610fd157610100808354040283529160200191610ffc565b820191906000526020600020905b815481529060010190602001808311610fdf57829003601f168201915b5050505050905090565b60008061101283610e0a565b90508073ffffffffffffffffffffffffffffffffffffffff163373ffffffffffffffffffffffffffffffffffffffff161415611083576040517f08c379a000000000000000000000000000000000000000000000000000000000815260040161107a90613708565b60405180910390fd5b34600b600085815260200190815260200160002054146110d8576040517f08c379a00000000000000000000000000000000000000000000000000000000081526004016110cf90613548565b60405180910390fd5b8073ffffffffffffffffffffffffffffffffffffffff166108fc349081150290604051600060405180830381858888f1935050505015801561111e573d6000803e3d6000fd5b5061112a813385611ae7565b33600a60018561113a9190613908565b81548110611171577f4e487b7100000000000000000000000000000000000000000000000000000000600052603260045260246000fd5b906000526020600020906006020160000160006101000a81548173ffffffffffffffffffffffffffffffffffffffff021916908373ffffffffffffffffffffffffffffffffffffffff16021790555050919050565b6111ce611948565b73ffffffffffffffffffffffffffffffffffffffff168273ffffffffffffffffffffffffffffffffffffffff16141561123c576040517f08c379a000000000000000000000000000000000000000000000000000000000815260040161123390613588565b60405180910390fd5b8060056000611249611948565b73ffffffffffffffffffffffffffffffffffffffff1673ffffffffffffffffffffffffffffffffffffffff16815260200190815260200160002060008473ffffffffffffffffffffffffffffffffffffffff1673ffffffffffffffffffffffffffffffffffffffff16815260200190815260200160002060006101000a81548160ff0219169083151502179055508173ffffffffffffffffffffffffffffffffffffffff166112f6611948565b73ffffffffffffffffffffffffffffffffffffffff167f17307eab39ab6107e8899845ad3d59bd9653f200f220920489ca2b5937696c318360405161133b91906134ab565b60405180910390a35050565b60008061135384610e0a565b90508073ffffffffffffffffffffffffffffffffffffffff163373ffffffffffffffffffffffffffffffffffffffff16146113c3576040517f08c379a00000000000000000000000000000000000000000000000000000000081526004016113ba906134e8565b60405180910390fd5b82600a6001866113d39190613908565b8154811061140a577f4e487b7100000000000000000000000000000000000000000000000000000000600052603260045260246000fd5b9060005260206000209060060201600401819055505092915050565b611437611431611948565b83611a09565b611476576040517f08c379a000000000000000000000000000000000000000000000000000000000815260040161146d90613728565b60405180910390fd5b61148284848484611fd8565b50505050565b6060611493826118dc565b6114d2576040517f08c379a00000000000000000000000000000000000000000000000000000000081526004016114c990613668565b60405180910390fd5b60006006600084815260200190815260200160002080546114f290613a04565b80601f016020809104026020016040519081016040528092919081815260200182805461151e90613a04565b801561156b5780601f106115405761010080835404028352916020019161156b565b820191906000526020600020905b81548152906001019060200180831161154e57829003601f168201915b50505050509050600061157c612034565b90506000815114156115925781925050506115d5565b6000825111156115c75780826040516020016115af929190613388565b604051602081830303815290604052925050506115d5565b6115d08461204b565b925050505b919050565b600a81815481106115ea57600080fd5b90600052602060002090600602016000915090508060000160009054906101000a900473ffffffffffffffffffffffffffffffffffffffff169080600101549080600201805461163990613a04565b80601f016020809104026020016040519081016040528092919081815260200182805461166590613a04565b80156116b25780601f10611687576101008083540402835291602001916116b2565b820191906000526020600020905b81548152906001019060200180831161169557829003601f168201915b5050505050908060030180546116c790613a04565b80601f01602080910402602001604051908101604052809291908181526020018280546116f390613a04565b80156117405780601f1061171557610100808354040283529160200191611740565b820191906000526020600020905b81548152906001019060200180831161172357829003601f168201915b50505050509080600401549080600501805461175b90613a04565b80601f016020809104026020016040519081016040528092919081815260200182805461178790613a04565b80156117d45780601f106117a9576101008083540402835291602001916117d4565b820191906000526020600020905b8154815290600101906020018083116117b757829003601f168201915b5050505050905086565b6000600560008473ffffffffffffffffffffffffffffffffffffffff1673ffffffffffffffffffffffffffffffffffffffff16815260200190815260200160002060008373ffffffffffffffffffffffffffffffffffffffff1673ffffffffffffffffffffffffffffffffffffffff16815260200190815260200160002060009054906101000a900460ff16905092915050565b60007f01ffc9a7000000000000000000000000000000000000000000000000000000007bffffffffffffffffffffffffffffffffffffffffffffffffffffffff1916827bffffffffffffffffffffffffffffffffffffffffffffffffffffffff1916149050919050565b60008073ffffffffffffffffffffffffffffffffffffffff166002600084815260200190815260200160002060009054906101000a900473ffffffffffffffffffffffffffffffffffffffff1673ffffffffffffffffffffffffffffffffffffffff1614159050919050565b600033905090565b816004600083815260200190815260200160002060006101000a81548173ffffffffffffffffffffffffffffffffffffffff021916908373ffffffffffffffffffffffffffffffffffffffff160217905550808273ffffffffffffffffffffffffffffffffffffffff166119c383610e0a565b73ffffffffffffffffffffffffffffffffffffffff167f8c5be1e5ebec7d5bd14f71427d1e84f3dd0314c0f7b2291e5b200ac8c7c3b92560405160405180910390a45050565b6000611a14826118dc565b611a53576040517f08c379a0000000000000000000000000000000000000000000000000000000008152600401611a4a906135a8565b60405180910390fd5b6000611a5e83610e0a565b90508073ffffffffffffffffffffffffffffffffffffffff168473ffffffffffffffffffffffffffffffffffffffff161480611acd57508373ffffffffffffffffffffffffffffffffffffffff16611ab5846106ba565b73ffffffffffffffffffffffffffffffffffffffff16145b80611ade5750611add81856117de565b5b91505092915050565b8273ffffffffffffffffffffffffffffffffffffffff16611b0782610e0a565b73ffffffffffffffffffffffffffffffffffffffff1614611b5d576040517f08c379a0000000000000000000000000000000000000000000000000000000008152600401611b54906136a8565b60405180910390fd5b600073ffffffffffffffffffffffffffffffffffffffff168273ffffffffffffffffffffffffffffffffffffffff161415611bcd576040517f08c379a0000000000000000000000000000000000000000000000000000000008152600401611bc490613568565b60405180910390fd5b611bd88383836120f2565b611be3600082611950565b6001600360008573ffffffffffffffffffffffffffffffffffffffff1673ffffffffffffffffffffffffffffffffffffffff1681526020019081526020016000206000828254611c339190613908565b925050819055506001600360008473ffffffffffffffffffffffffffffffffffffffff1673ffffffffffffffffffffffffffffffffffffffff1681526020019081526020016000206000828254611c8a9190613881565b92505081905550816002600083815260200190815260200160002060006101000a81548173ffffffffffffffffffffffffffffffffffffffff021916908373ffffffffffffffffffffffffffffffffffffffff160217905550808273ffffffffffffffffffffffffffffffffffffffff168473ffffffffffffffffffffffffffffffffffffffff167fddf252ad1be2c89b69c2b068fc378daa952ba7f163c4a11628f55a4df523b3ef60405160405180910390a4505050565b611d4c816120f7565b6000600660008381526020019081526020016000208054611d6c90613a04565b905014611d9357600660008281526020019081526020016000206000611d92919061255f565b5b50565b600073ffffffffffffffffffffffffffffffffffffffff168273ffffffffffffffffffffffffffffffffffffffff161415611e06576040517f08c379a0000000000000000000000000000000000000000000000000000000008152600401611dfd90613648565b60405180910390fd5b611e0f816118dc565b15611e4f576040517f08c379a0000000000000000000000000000000000000000000000000000000008152600401611e4690613528565b60405180910390fd5b611e5b600083836120f2565b6001600360008473ffffffffffffffffffffffffffffffffffffffff1673ffffffffffffffffffffffffffffffffffffffff1681526020019081526020016000206000828254611eab9190613881565b92505081905550816002600083815260200190815260200160002060006101000a81548173ffffffffffffffffffffffffffffffffffffffff021916908373ffffffffffffffffffffffffffffffffffffffff160217905550808273ffffffffffffffffffffffffffffffffffffffff16600073ffffffffffffffffffffffffffffffffffffffff167fddf252ad1be2c89b69c2b068fc378daa952ba7f163c4a11628f55a4df523b3ef60405160405180910390a45050565b611f6d826118dc565b611fac576040517f08c379a0000000000000000000000000000000000000000000000000000000008152600401611fa390613628565b60405180910390fd5b80600660008481526020019081526020016000209080519060200190611fd392919061259f565b505050565b611fe3848484611ae7565b611fef84848484612208565b61202e576040517f08c379a000000000000000000000000000000000000000000000000000000000815260040161202590613508565b60405180910390fd5b50505050565b606060405180602001604052806000815250905090565b6060612056826118dc565b612095576040517f08c379a000000000000000000000000000000000000000000000000000000000815260040161208c906136c8565b60405180910390fd5b600061209f612034565b905060008151116120bf57604051806020016040528060008152506120ea565b806120c98461239f565b6040516020016120da929190613388565b6040516020818303038152906040525b915050919050565b505050565b600061210282610e0a565b9050612110816000846120f2565b61211b600083611950565b6001600360008373ffffffffffffffffffffffffffffffffffffffff1673ffffffffffffffffffffffffffffffffffffffff168152602001908152602001600020600082825461216b9190613908565b925050819055506002600083815260200190815260200160002060006101000a81549073ffffffffffffffffffffffffffffffffffffffff021916905581600073ffffffffffffffffffffffffffffffffffffffff168273ffffffffffffffffffffffffffffffffffffffff167fddf252ad1be2c89b69c2b068fc378daa952ba7f163c4a11628f55a4df523b3ef60405160405180910390a45050565b60006122298473ffffffffffffffffffffffffffffffffffffffff1661254c565b15612392578373ffffffffffffffffffffffffffffffffffffffff1663150b7a02612252611948565b8786866040518563ffffffff1660e01b8152600401612274949392919061343d565b602060405180830381600087803b15801561228e57600080fd5b505af19250505080156122bf57506040513d601f19601f820116820180604052508101906122bc919061294b565b60015b612342573d80600081146122ef576040519150601f19603f3d011682016040523d82523d6000602084013e6122f4565b606091505b5060008151141561233a576040517f08c379a000000000000000000000000000000000000000000000000000000000815260040161233190613508565b60405180910390fd5b805181602001fd5b63150b7a0260e01b7bffffffffffffffffffffffffffffffffffffffffffffffffffffffff1916817bffffffffffffffffffffffffffffffffffffffffffffffffffffffff191614915050612397565b600190505b949350505050565b606060008214156123e7576040518060400160405280600181526020017f30000000000000000000000000000000000000000000000000000000000000008152509050612547565b600082905060005b6000821461241957808061240290613a36565b915050600a8261241291906138d7565b91506123ef565b60008167ffffffffffffffff81111561245b577f4e487b7100000000000000000000000000000000000000000000000000000000600052604160045260246000fd5b6040519080825280601f01601f19166020018201604052801561248d5781602001600182028036833780820191505090505b5090505b60008514612540576001826124a69190613908565b9150600a856124b59190613a7f565b60306124c19190613881565b60f81b8183815181106124fd577f4e487b7100000000000000000000000000000000000000000000000000000000600052603260045260246000fd5b60200101907effffffffffffffffffffffffffffffffffffffffffffffffffffffffffffff1916908160001a905350600a8561253991906138d7565b9450612491565b8093505050505b919050565b600080823b905060008111915050919050565b50805461256b90613a04565b6000825580601f1061257d575061259c565b601f01602090049060005260206000209081019061259b9190612625565b5b50565b8280546125ab90613a04565b90600052602060002090601f0160209004810192826125cd5760008555612614565b82601f106125e657805160ff1916838001178555612614565b82800160010185558215612614579182015b828111156126135782518255916020019190600101906125f8565b5b5090506126219190612625565b5090565b5b8082111561263e576000816000905550600101612626565b5090565b600061265561265084613794565b613763565b90508281526020810184848401111561266d57600080fd5b6126788482856139c2565b509392505050565b600061269361268e846137c4565b613763565b9050828152602081018484840111156126ab57600080fd5b6126b68482856139c2565b509392505050565b6000813590506126cd81613b7d565b92915050565b6000813590506126e281613b94565b92915050565b6000813590506126f781613bab565b92915050565b60008151905061270c81613bab565b92915050565b600082601f83011261272357600080fd5b8135612733848260208601612642565b91505092915050565b600082601f83011261274d57600080fd5b813561275d848260208601612680565b91505092915050565b60008135905061277581613bc2565b92915050565b60006020828403121561278d57600080fd5b600061279b848285016126be565b91505092915050565b600080604083850312156127b757600080fd5b60006127c5858286016126be565b92505060206127d6858286016126be565b9150509250929050565b6000806000606084860312156127f557600080fd5b6000612803868287016126be565b9350506020612814868287016126be565b925050604061282586828701612766565b9150509250925092565b6000806000806080858703121561284557600080fd5b6000612853878288016126be565b9450506020612864878288016126be565b935050604061287587828801612766565b925050606085013567ffffffffffffffff81111561289257600080fd5b61289e87828801612712565b91505092959194509250565b600080604083850312156128bd57600080fd5b60006128cb858286016126be565b92505060206128dc858286016126d3565b9150509250929050565b600080604083850312156128f957600080fd5b6000612907858286016126be565b925050602061291885828601612766565b9150509250929050565b60006020828403121561293457600080fd5b6000612942848285016126e8565b91505092915050565b60006020828403121561295d57600080fd5b600061296b848285016126fd565b91505092915050565b6000806000806080858703121561298a57600080fd5b600085013567ffffffffffffffff8111156129a457600080fd5b6129b08782880161273c565b945050602085013567ffffffffffffffff8111156129cd57600080fd5b6129d98782880161273c565b93505060406129ea87828801612766565b925050606085013567ffffffffffffffff811115612a0757600080fd5b612a138782880161273c565b91505092959194509250565b600060208284031215612a3157600080fd5b6000612a3f84828501612766565b91505092915050565b60008060408385031215612a5b57600080fd5b6000612a6985828601612766565b9250506020612a7a85828601612766565b9150509250929050565b6000612a9083836132d3565b905092915050565b612aa18161394e565b82525050565b612ab08161394e565b82525050565b612abf8161393c565b82525050565b6000612ad082613804565b612ada8185613832565b935083602082028501612aec856137f4565b8060005b85811015612b285784840389528151612b098582612a84565b9450612b1483613825565b925060208a01995050600181019050612af0565b50829750879550505050505092915050565b612b4381613960565b82525050565b6000612b548261380f565b612b5e8185613843565b9350612b6e8185602086016139d1565b612b7781613b6c565b840191505092915050565b6000612b8d8261381a565b612b978185613854565b9350612ba78185602086016139d1565b612bb081613b6c565b840191505092915050565b6000612bc68261381a565b612bd08185613865565b9350612be08185602086016139d1565b612be981613b6c565b840191505092915050565b6000612bff8261381a565b612c098185613876565b9350612c198185602086016139d1565b80840191505092915050565b6000612c32601b83613865565b91507f4f6e6c79206f776e65722063616e206368616e676520707269636500000000006000830152602082019050919050565b6000612c72603283613865565b91507f4552433732313a207472616e7366657220746f206e6f6e20455243373231526560008301527f63656976657220696d706c656d656e74657200000000000000000000000000006020830152604082019050919050565b6000612cd8601c83613865565b91507f4552433732313a20746f6b656e20616c7265616479206d696e746564000000006000830152602082019050919050565b6000612d18601d83613865565b91507f6e6f74206861766520656e6f75676820616d6f756e7420746f206275790000006000830152602082019050919050565b6000612d58602483613865565b91507f4552433732313a207472616e7366657220746f20746865207a65726f2061646460008301527f72657373000000000000000000000000000000000000000000000000000000006020830152604082019050919050565b6000612dbe601983613865565b91507f4552433732313a20617070726f766520746f2063616c6c6572000000000000006000830152602082019050919050565b6000612dfe602c83613865565b91507f4552433732313a206f70657261746f7220717565727920666f72206e6f6e657860008301527f697374656e7420746f6b656e00000000000000000000000000000000000000006020830152604082019050919050565b6000612e64603883613865565b91507f4552433732313a20617070726f76652063616c6c6572206973206e6f74206f7760008301527f6e6572206e6f7220617070726f76656420666f7220616c6c00000000000000006020830152604082019050919050565b6000612eca602a83613865565b91507f4552433732313a2062616c616e636520717565727920666f7220746865207a6560008301527f726f2061646472657373000000000000000000000000000000000000000000006020830152604082019050919050565b6000612f30602983613865565b91507f4552433732313a206f776e657220717565727920666f72206e6f6e657869737460008301527f656e7420746f6b656e00000000000000000000000000000000000000000000006020830152604082019050919050565b6000612f96602e83613865565b91507f45524337323155524953746f726167653a2055524920736574206f66206e6f6e60008301527f6578697374656e7420746f6b656e0000000000000000000000000000000000006020830152604082019050919050565b6000612ffc602083613865565b91507f4552433732313a206d696e7420746f20746865207a65726f20616464726573736000830152602082019050919050565b600061303c603183613865565b91507f45524337323155524953746f726167653a2055524920717565727920666f722060008301527f6e6f6e6578697374656e7420746f6b656e0000000000000000000000000000006020830152604082019050919050565b60006130a2602c83613865565b91507f4552433732313a20617070726f76656420717565727920666f72206e6f6e657860008301527f697374656e7420746f6b656e00000000000000000000000000000000000000006020830152604082019050919050565b6000613108602983613865565b91507f4552433732313a207472616e73666572206f6620746f6b656e2074686174206960008301527f73206e6f74206f776e00000000000000000000000000000000000000000000006020830152604082019050919050565b600061316e602f83613865565b91507f4552433732314d657461646174613a2055524920717565727920666f72206e6f60008301527f6e6578697374656e7420746f6b656e00000000000000000000000000000000006020830152604082019050919050565b60006131d4602183613865565b91507f4552433732313a20617070726f76616c20746f2063757272656e74206f776e6560008301527f72000000000000000000000000000000000000000000000000000000000000006020830152604082019050919050565b600061323a601483613865565b91507f616c7265616479206f776e2074686973204e46540000000000000000000000006000830152602082019050919050565b600061327a603183613865565b91507f4552433732313a207472616e736665722063616c6c6572206973206e6f74206f60008301527f776e6572206e6f7220617070726f7665640000000000000000000000000000006020830152604082019050919050565b600060c0830160008301516132eb6000860182612a98565b5060208301516132fe602086018261336a565b50604083015184820360408601526133168282612b82565b915050606083015184820360608601526133308282612b82565b9150506080830151613345608086018261336a565b5060a083015184820360a086015261335d8282612b82565b9150508091505092915050565b613373816139b8565b82525050565b613382816139b8565b82525050565b60006133948285612bf4565b91506133a08284612bf4565b91508190509392505050565b60006020820190506133c16000830184612ab6565b92915050565b600060c0820190506133dc6000830189612aa7565b6133e96020830188613379565b81810360408301526133fb8187612bbb565b9050818103606083015261340f8186612bbb565b905061341e6080830185613379565b81810360a08301526134308184612bbb565b9050979650505050505050565b60006080820190506134526000830187612ab6565b61345f6020830186612ab6565b61346c6040830185613379565b818103606083015261347e8184612b49565b905095945050505050565b600060208201905081810360008301526134a38184612ac5565b905092915050565b60006020820190506134c06000830184612b3a565b92915050565b600060208201905081810360008301526134e08184612bbb565b905092915050565b6000602082019050818103600083015261350181612c25565b9050919050565b6000602082019050818103600083015261352181612c65565b9050919050565b6000602082019050818103600083015261354181612ccb565b9050919050565b6000602082019050818103600083015261356181612d0b565b9050919050565b6000602082019050818103600083015261358181612d4b565b9050919050565b600060208201905081810360008301526135a181612db1565b9050919050565b600060208201905081810360008301526135c181612df1565b9050919050565b600060208201905081810360008301526135e181612e57565b9050919050565b6000602082019050818103600083015261360181612ebd565b9050919050565b6000602082019050818103600083015261362181612f23565b9050919050565b6000602082019050818103600083015261364181612f89565b9050919050565b6000602082019050818103600083015261366181612fef565b9050919050565b600060208201905081810360008301526136818161302f565b9050919050565b600060208201905081810360008301526136a181613095565b9050919050565b600060208201905081810360008301526136c1816130fb565b9050919050565b600060208201905081810360008301526136e181613161565b9050919050565b60006020820190508181036000830152613701816131c7565b9050919050565b600060208201905081810360008301526137218161322d565b9050919050565b600060208201905081810360008301526137418161326d565b9050919050565b600060208201905061375d6000830184613379565b92915050565b6000604051905081810181811067ffffffffffffffff8211171561378a57613789613b3d565b5b8060405250919050565b600067ffffffffffffffff8211156137af576137ae613b3d565b5b601f19601f8301169050602081019050919050565b600067ffffffffffffffff8211156137df576137de613b3d565b5b601f19601f8301169050602081019050919050565b6000819050602082019050919050565b600081519050919050565b600081519050919050565b600081519050919050565b6000602082019050919050565b600082825260208201905092915050565b600082825260208201905092915050565b600082825260208201905092915050565b600082825260208201905092915050565b600081905092915050565b600061388c826139b8565b9150613897836139b8565b9250827fffffffffffffffffffffffffffffffffffffffffffffffffffffffffffffffff038211156138cc576138cb613ab0565b5b828201905092915050565b60006138e2826139b8565b91506138ed836139b8565b9250826138fd576138fc613adf565b5b828204905092915050565b6000613913826139b8565b915061391e836139b8565b92508282101561393157613930613ab0565b5b828203905092915050565b600061394782613998565b9050919050565b600061395982613998565b9050919050565b60008115159050919050565b60007fffffffff0000000000000000000000000000000000000000000000000000000082169050919050565b600073ffffffffffffffffffffffffffffffffffffffff82169050919050565b6000819050919050565b82818337600083830152505050565b60005b838110156139ef5780820151818401526020810190506139d4565b838111156139fe576000848401525b50505050565b60006002820490506001821680613a1c57607f821691505b60208210811415613a3057613a2f613b0e565b5b50919050565b6000613a41826139b8565b91507fffffffffffffffffffffffffffffffffffffffffffffffffffffffffffffffff821415613a7457613a73613ab0565b5b600182019050919050565b6000613a8a826139b8565b9150613a95836139b8565b925082613aa557613aa4613adf565b5b828206905092915050565b7f4e487b7100000000000000000000000000000000000000000000000000000000600052601160045260246000fd5b7f4e487b7100000000000000000000000000000000000000000000000000000000600052601260045260246000fd5b7f4e487b7100000000000000000000000000000000000000000000000000000000600052602260045260246000fd5b7f4e487b7100000000000000000000000000000000000000000000000000000000600052604160045260246000fd5b6000601f19601f8301169050919050565b613b868161393c565b8114613b9157600080fd5b50565b613b9d81613960565b8114613ba857600080fd5b50565b613bb48161396c565b8114613bbf57600080fd5b50565b613bcb816139b8565b8114613bd657600080fd5b5056fea26469706673582212205feccb5ae2de91c2a4ea02da497c342ffaef96c013be32af864d27b9d86f24c164736f6c63430008000033",
  "immutableReferences": {},
  "source": "pragma solidity ^0.8.0;\r\npragma experimental ABIEncoderV2;\r\n//import \"@openzeppelin/contracts/token/ERC721/ERC721.sol\";\r\nimport \"@openzeppelin/contracts/token/ERC721/extensions/ERC721URIStorage.sol\";\r\n\r\ncontract MyNFT is ERC721URIStorage {\r\n    uint256 counter = 0;\r\n    uint256 tokenId;\r\n    address payable owner;\r\n    constructor() public ERC721(\"MyNFT\", \"MNFT\") {\r\n        owner = payable(msg.sender);\r\n    }\r\n    modifier onlyOwner() {\r\n        (msg.sender == owner);\r\n        _;\r\n    }\r\n    struct petObj {\r\n        address payable owner;\r\n        uint256 id;\r\n        string petUri;\r\n        string  name;\r\n        uint256 price;\r\n        string imgHash;\r\n    \r\n     }\r\n\r\n    petObj[] public petArray;\r\n    mapping(uint => uint) public price;\r\n    function listPet(string memory _petUri, string memory _name,uint256 _price,string memory _imgHash) public returns(uint256){\r\n        counter += 1;\r\n        tokenId = counter;\r\n        _mint(msg.sender, tokenId);\r\n        _setTokenURI(tokenId, _petUri);\r\n        price[tokenId] = _price; \r\n        petObj memory obj =  petObj(payable(msg.sender),tokenId,_petUri,_name,_price,_imgHash);\r\n        petArray.push(obj);\r\n        return tokenId;\r\n    }\r\n\r\n    function buyPet(uint tokenId) public payable returns(bool){\r\n        address _owner = ownerOf(tokenId);\r\n        require(msg.sender != _owner, \"already own this NFT\");\r\n        require(price[tokenId] == msg.value, \"not have enough amount to buy\");\r\n        payable(_owner).transfer(msg.value);\r\n        _transfer(_owner, msg.sender, tokenId);\r\n        petArray[tokenId - 1].owner = payable(msg.sender);\r\n        \r\n    }\r\n    function burnNFT(uint tokenId) public returns(bool){\r\n        require(msg.sender == ownerOf(tokenId));\r\n        _burn(tokenId);\r\n        delete petArray[tokenId - 1];\r\n        \r\n    }\r\n    \r\n    function changePrice(uint tokenId, uint256 _newPrice) public returns(bool){\r\n        address _owner = ownerOf(tokenId);\r\n        require(msg.sender == _owner, \"Only owner can change price\");\r\n        petArray[tokenId - 1].price = _newPrice;\r\n    } \r\n\r\n    function getData() public  view returns(petObj[] memory){\r\n        return petArray;\r\n    }\r\n}",
  "sourcePath": "D:/Qtr4/NFT_Petshop/contracts/MyNFT.sol",
  "compiler": {
    "name": "solc",
    "version": "0.8.0+commit.c7dfd78e.Emscripten.clang"
  },
  "schemaVersion": "3.3.4",
  "updatedAt": "2021-09-23T11:34:16.590Z",
  "networkType": "ethereum",
  "devdoc": {
    "kind": "dev",
    "methods": {
      "approve(address,uint256)": {
        "details": "See {IERC721-approve}."
      },
      "balanceOf(address)": {
        "details": "See {IERC721-balanceOf}."
      },
      "getApproved(uint256)": {
        "details": "See {IERC721-getApproved}."
      },
      "isApprovedForAll(address,address)": {
        "details": "See {IERC721-isApprovedForAll}."
      },
      "name()": {
        "details": "See {IERC721Metadata-name}."
      },
      "ownerOf(uint256)": {
        "details": "See {IERC721-ownerOf}."
      },
      "safeTransferFrom(address,address,uint256)": {
        "details": "See {IERC721-safeTransferFrom}."
      },
      "safeTransferFrom(address,address,uint256,bytes)": {
        "details": "See {IERC721-safeTransferFrom}."
      },
      "setApprovalForAll(address,bool)": {
        "details": "See {IERC721-setApprovalForAll}."
      },
      "supportsInterface(bytes4)": {
        "details": "See {IERC165-supportsInterface}."
      },
      "symbol()": {
        "details": "See {IERC721Metadata-symbol}."
      },
      "tokenURI(uint256)": {
        "details": "See {IERC721Metadata-tokenURI}."
      },
      "transferFrom(address,address,uint256)": {
        "details": "See {IERC721-transferFrom}."
      }
    },
    "version": 1
  },
  "userdoc": {
    "kind": "user",
    "methods": {},
    "version": 1
  }
}